{
  "_format": "hh-sol-artifact-1",
  "contractName": "FarmProduceSaleLog",
  "sourceName": "contracts/FarmProduceSaleLog.sol",
  "abi": [
    {
      "inputs": [],
      "stateMutability": "nonpayable",
      "type": "constructor"
    },
    {
      "anonymous": false,
      "inputs": [
        {
          "indexed": true,
          "internalType": "address",
          "name": "farmerAddress",
          "type": "address"
        },
        {
          "indexed": false,
          "internalType": "string",
          "name": "name",
          "type": "string"
        }
      ],
      "name": "FarmerRegistered",
      "type": "event"
    },
    {
      "anonymous": false,
      "inputs": [
        {
          "indexed": true,
          "internalType": "address",
          "name": "farmerAddress",
          "type": "address"
        },
        {
          "indexed": false,
          "internalType": "uint256",
          "name": "produceId",
          "type": "uint256"
        },
        {
          "indexed": false,
          "internalType": "uint256",
          "name": "remainingQuantity",
          "type": "uint256"
        }
      ],
      "name": "LowStockAlert",
      "type": "event"
    },
    {
      "anonymous": false,
      "inputs": [
        {
          "indexed": true,
          "internalType": "address",
          "name": "farmerAddress",
          "type": "address"
        },
        {
          "indexed": false,
          "internalType": "uint256",
          "name": "produceId",
          "type": "uint256"
        },
        {
          "indexed": false,
          "internalType": "string",
          "name": "name",
          "type": "string"
        }
      ],
      "name": "ProduceAdded",
      "type": "event"
    },
    {
      "anonymous": false,
      "inputs": [
        {
          "indexed": true,
          "internalType": "address",
          "name": "farmerAddress",
          "type": "address"
        },
        {
          "indexed": false,
          "internalType": "uint256",
          "name": "produceId",
          "type": "uint256"
        }
      ],
      "name": "ProduceRemoved",
      "type": "event"
    },
    {
      "anonymous": false,
      "inputs": [
        {
          "indexed": true,
          "internalType": "address",
          "name": "farmerAddress",
          "type": "address"
        },
        {
          "indexed": false,
          "internalType": "uint256",
          "name": "produceId",
          "type": "uint256"
        }
      ],
      "name": "ProduceUpdated",
      "type": "event"
    },
    {
      "anonymous": false,
      "inputs": [
        {
          "indexed": true,
          "internalType": "address",
          "name": "farmerAddress",
          "type": "address"
        },
        {
          "indexed": false,
          "internalType": "uint256",
          "name": "saleId",
          "type": "uint256"
        },
        {
          "indexed": false,
          "internalType": "uint256",
          "name": "produceId",
          "type": "uint256"
        },
        {
          "indexed": false,
          "internalType": "uint256",
          "name": "quantity",
          "type": "uint256"
        }
      ],
      "name": "SaleRecorded",
      "type": "event"
    },
    {
      "anonymous": false,
      "inputs": [
        {
          "indexed": true,
          "internalType": "address",
          "name": "userAddress",
          "type": "address"
        },
        {
          "indexed": false,
          "internalType": "string",
          "name": "phoneNumber",
          "type": "string"
        }
      ],
      "name": "UserRegistered",
      "type": "event"
    },
    {
      "inputs": [],
      "name": "LOW_STOCK_THRESHOLD",
      "outputs": [
        {
          "internalType": "uint256",
          "name": "",
          "type": "uint256"
        }
      ],
      "stateMutability": "view",
      "type": "function"
    },
    {
      "inputs": [
        {
          "internalType": "string",
          "name": "_name",
          "type": "string"
        },
        {
          "internalType": "string",
          "name": "_category",
          "type": "string"
        },
        {
          "internalType": "uint256",
          "name": "_price",
          "type": "uint256"
        },
        {
          "internalType": "uint256",
          "name": "_quantity",
          "type": "uint256"
        },
        {
          "internalType": "string",
          "name": "_harvestDate",
          "type": "string"
        },
        {
          "internalType": "string",
          "name": "_imageHash",
          "type": "string"
        }
      ],
      "name": "addProduce",
      "outputs": [
        {
          "internalType": "uint256",
          "name": "",
          "type": "uint256"
        }
      ],
      "stateMutability": "nonpayable",
      "type": "function"
    },
    {
      "inputs": [
        {
          "internalType": "address",
          "name": "",
          "type": "address"
        },
        {
          "internalType": "uint256",
          "name": "",
          "type": "uint256"
        }
      ],
      "name": "farmerProduce",
      "outputs": [
        {
          "internalType": "string",
          "name": "name",
          "type": "string"
        },
        {
          "internalType": "string",
          "name": "category",
          "type": "string"
        },
        {
          "internalType": "uint256",
          "name": "price",
          "type": "uint256"
        },
        {
          "internalType": "uint256",
          "name": "quantity",
          "type": "uint256"
        },
        {
          "internalType": "string",
          "name": "harvestDate",
          "type": "string"
        },
        {
          "internalType": "string",
          "name": "imageHash",
          "type": "string"
        },
        {
          "internalType": "bool",
          "name": "isAvailable",
          "type": "bool"
        }
      ],
      "stateMutability": "view",
      "type": "function"
    },
    {
      "inputs": [
        {
          "internalType": "address",
          "name": "",
          "type": "address"
        },
        {
          "internalType": "uint256",
          "name": "",
          "type": "uint256"
        }
      ],
      "name": "farmerSales",
      "outputs": [
        {
          "internalType": "uint256",
          "name": "produceId",
          "type": "uint256"
        },
        {
          "internalType": "uint256",
          "name": "quantity",
          "type": "uint256"
        },
        {
          "internalType": "string",
          "name": "buyerName",
          "type": "string"
        },
        {
          "internalType": "string",
          "name": "buyerPhone",
          "type": "string"
        },
        {
          "internalType": "uint256",
          "name": "price",
          "type": "uint256"
        },
        {
          "internalType": "uint256",
          "name": "timestamp",
          "type": "uint256"
        }
      ],
      "stateMutability": "view",
      "type": "function"
    },
    {
      "inputs": [
        {
          "internalType": "address",
          "name": "",
          "type": "address"
        }
      ],
      "name": "farmers",
      "outputs": [
        {
          "internalType": "string",
          "name": "name",
          "type": "string"
        },
        {
          "internalType": "string",
          "name": "contactInfo",
          "type": "string"
        },
        {
          "internalType": "string",
          "name": "location",
          "type": "string"
        },
        {
          "internalType": "bool",
          "name": "isRegistered",
          "type": "bool"
        }
      ],
      "stateMutability": "view",
      "type": "function"
    },
    {
      "inputs": [],
      "name": "getAllProduceIds",
      "outputs": [
        {
          "internalType": "uint256[]",
          "name": "",
          "type": "uint256[]"
        }
      ],
      "stateMutability": "view",
      "type": "function"
    },
    {
      "inputs": [],
      "name": "getAllSaleIds",
      "outputs": [
        {
          "internalType": "uint256[]",
          "name": "",
          "type": "uint256[]"
        }
      ],
      "stateMutability": "view",
      "type": "function"
    },
    {
      "inputs": [],
      "name": "getAllSales",
      "outputs": [
        {
          "components": [
            {
              "internalType": "uint256",
              "name": "produceId",
              "type": "uint256"
            },
            {
              "internalType": "uint256",
              "name": "quantity",
              "type": "uint256"
            },
            {
              "internalType": "string",
              "name": "buyerName",
              "type": "string"
            },
            {
              "internalType": "string",
              "name": "buyerPhone",
              "type": "string"
            },
            {
              "internalType": "uint256",
              "name": "price",
              "type": "uint256"
            },
            {
              "internalType": "uint256",
              "name": "timestamp",
              "type": "uint256"
            }
          ],
          "internalType": "struct FarmProduceSaleLog.Sale[]",
          "name": "",
          "type": "tuple[]"
        }
      ],
      "stateMutability": "view",
      "type": "function"
    },
    {
      "inputs": [],
      "name": "getFarmerProfile",
      "outputs": [
        {
          "internalType": "string",
          "name": "name",
          "type": "string"
        },
        {
          "internalType": "string",
          "name": "contactInfo",
          "type": "string"
        },
        {
          "internalType": "string",
          "name": "location",
          "type": "string"
        },
        {
          "internalType": "bool",
          "name": "isRegistered",
          "type": "bool"
        }
      ],
      "stateMutability": "view",
      "type": "function"
    },
    {
      "inputs": [],
      "name": "getProduceCount",
      "outputs": [
        {
          "internalType": "uint256",
          "name": "",
          "type": "uint256"
        }
      ],
      "stateMutability": "view",
      "type": "function"
    },
    {
      "inputs": [
        {
          "internalType": "uint256",
          "name": "_produceId",
          "type": "uint256"
        }
      ],
      "name": "getProduceDetails",
      "outputs": [
        {
          "internalType": "string",
          "name": "name",
          "type": "string"
        },
        {
          "internalType": "string",
          "name": "category",
          "type": "string"
        },
        {
          "internalType": "uint256",
          "name": "price",
          "type": "uint256"
        },
        {
          "internalType": "uint256",
          "name": "quantity",
          "type": "uint256"
        },
        {
          "internalType": "string",
          "name": "harvestDate",
          "type": "string"
        },
        {
          "internalType": "string",
          "name": "imageHash",
          "type": "string"
        },
        {
          "internalType": "bool",
          "name": "isAvailable",
          "type": "bool"
        }
      ],
      "stateMutability": "view",
      "type": "function"
    },
    {
      "inputs": [
        {
          "internalType": "uint256",
          "name": "_saleId",
          "type": "uint256"
        }
      ],
      "name": "getSaleDetails",
      "outputs": [
        {
          "internalType": "uint256",
          "name": "produceId",
          "type": "uint256"
        },
        {
          "internalType": "uint256",
          "name": "quantity",
          "type": "uint256"
        },
        {
          "internalType": "string",
          "name": "buyerName",
          "type": "string"
        },
        {
          "internalType": "string",
          "name": "buyerPhone",
          "type": "string"
        },
        {
          "internalType": "uint256",
          "name": "price",
          "type": "uint256"
        },
        {
          "internalType": "uint256",
          "name": "timestamp",
          "type": "uint256"
        }
      ],
      "stateMutability": "view",
      "type": "function"
    },
    {
      "inputs": [],
      "name": "getSalesCount",
      "outputs": [
        {
          "internalType": "uint256",
          "name": "",
          "type": "uint256"
        }
      ],
      "stateMutability": "view",
      "type": "function"
    },
    {
      "inputs": [],
      "name": "owner",
      "outputs": [
        {
          "internalType": "address",
          "name": "",
          "type": "address"
        }
      ],
      "stateMutability": "view",
      "type": "function"
    },
    {
      "inputs": [
        {
          "internalType": "address",
          "name": "",
          "type": "address"
        }
      ],
      "name": "produceCount",
      "outputs": [
        {
          "internalType": "uint256",
          "name": "",
          "type": "uint256"
        }
      ],
      "stateMutability": "view",
      "type": "function"
    },
    {
      "inputs": [
        {
          "internalType": "uint256",
          "name": "_produceId",
          "type": "uint256"
        },
        {
          "internalType": "uint256",
          "name": "_quantity",
          "type": "uint256"
        },
        {
          "internalType": "string",
          "name": "_buyerName",
          "type": "string"
        },
        {
          "internalType": "string",
          "name": "_buyerPhone",
          "type": "string"
        },
        {
          "internalType": "uint256",
          "name": "_price",
          "type": "uint256"
        }
      ],
      "name": "recordSale",
      "outputs": [
        {
          "internalType": "uint256",
          "name": "",
          "type": "uint256"
        }
      ],
      "stateMutability": "nonpayable",
      "type": "function"
    },
    {
      "inputs": [
        {
          "internalType": "string",
          "name": "_name",
          "type": "string"
        },
        {
          "internalType": "string",
          "name": "_contactInfo",
          "type": "string"
        },
        {
          "internalType": "string",
          "name": "_location",
          "type": "string"
        }
      ],
      "name": "registerFarmer",
      "outputs": [],
      "stateMutability": "nonpayable",
      "type": "function"
    },
    {
      "inputs": [
        {
          "internalType": "uint256",
          "name": "_produceId",
          "type": "uint256"
        }
      ],
      "name": "removeProduce",
      "outputs": [],
      "stateMutability": "nonpayable",
      "type": "function"
    },
    {
      "inputs": [
        {
          "internalType": "address",
          "name": "",
          "type": "address"
        }
      ],
      "name": "salesCount",
      "outputs": [
        {
          "internalType": "uint256",
          "name": "",
          "type": "uint256"
        }
      ],
      "stateMutability": "view",
      "type": "function"
    },
    {
      "inputs": [
        {
          "internalType": "string",
          "name": "_name",
          "type": "string"
        },
        {
          "internalType": "string",
          "name": "_contactInfo",
          "type": "string"
        },
        {
          "internalType": "string",
          "name": "_location",
          "type": "string"
        }
      ],
      "name": "updateFarmerProfile",
      "outputs": [],
      "stateMutability": "nonpayable",
      "type": "function"
    },
    {
      "inputs": [
        {
          "internalType": "uint256",
          "name": "_produceId",
          "type": "uint256"
        },
        {
          "internalType": "string",
          "name": "_name",
          "type": "string"
        },
        {
          "internalType": "string",
          "name": "_category",
          "type": "string"
        },
        {
          "internalType": "uint256",
          "name": "_price",
          "type": "uint256"
        },
        {
          "internalType": "uint256",
          "name": "_quantity",
          "type": "uint256"
        },
        {
          "internalType": "string",
          "name": "_harvestDate",
          "type": "string"
        },
        {
          "internalType": "string",
          "name": "_imageHash",
          "type": "string"
        },
        {
          "internalType": "bool",
          "name": "_isAvailable",
          "type": "bool"
        }
      ],
      "name": "updateProduce",
      "outputs": [],
      "stateMutability": "nonpayable",
      "type": "function"
    },
    {
      "inputs": [
        {
          "internalType": "string",
          "name": "_phoneNumber",
          "type": "string"
        }
      ],
      "name": "userLogin",
      "outputs": [
        {
          "internalType": "bool",
          "name": "",
          "type": "bool"
        }
      ],
      "stateMutability": "view",
      "type": "function"
    },
    {
      "inputs": [
        {
          "internalType": "string",
          "name": "_phoneNumber",
          "type": "string"
        }
      ],
      "name": "userRegister",
      "outputs": [],
      "stateMutability": "nonpayable",
      "type": "function"
    },
    {
      "inputs": [
        {
          "internalType": "string",
          "name": "",
          "type": "string"
        }
      ],
      "name": "usersByPhone",
      "outputs": [
        {
          "internalType": "string",
          "name": "phoneNumber",
          "type": "string"
        },
        {
          "internalType": "address",
          "name": "walletAddress",
          "type": "address"
        },
        {
          "internalType": "bool",
          "name": "isRegistered",
          "type": "bool"
        }
      ],
      "stateMutability": "view",
      "type": "function"
    }
  ],
  "bytecode": "0x6080604052348015600f57600080fd5b50336000806101000a81548173ffffffffffffffffffffffffffffffffffffffff021916908373ffffffffffffffffffffffffffffffffffffffff160217905550613c5e8061005f6000396000f3fe608060405234801561001057600080fd5b50600436106101585760003560e01c80638c746d8b116100c3578063aabca97e1161007c578063aabca97e1461040d578063b01f91bb14610429578063b24a189614610459578063dbff57c114610489578063dd8027db146104b9578063e943bffa146104d757610158565b80638c746d8b146103325780638d0e7ee6146103675780638d621f60146103855780638da5cb5b146103a157806395b90228146103bf578063a02b5a91146103dd57610158565b8063401b216811610115578063401b2168146102415780634a80c7be1461027457806352ffad9514610292578063881d97dc146102c4578063893d32eb146102e05780638bc0c2c5146102fc57610158565b80630cc3310c1461015d5780631f461261146101925780631fac4fc9146101b357806329a566d2146101d157806331d7ba1e146101ed5780633339691714610223575b600080fd5b61017760048036038101906101729190612920565b610507565b604051610189969594939291906129ff565b60405180910390f35b61019a610660565b6040516101aa9493929190612a89565b60405180910390f35b6101bb61087a565b6040516101c89190612ae3565b60405180910390f35b6101eb60048036038101906101e69190612c33565b6108c1565b005b61020760048036038101906102029190612cda565b610a6c565b60405161021a9796959493929190612d07565b60405180910390f35b61022b610dc2565b6040516102389190612f3d565b60405180910390f35b61025b60048036038101906102569190612f5f565b611046565b60405161026b9493929190612a89565b60405180910390f35b61027c61121b565b604051610289919061303b565b60405180910390f35b6102ac60048036038101906102a7919061305d565b6112ef565b6040516102bb939291906130b5565b60405180910390f35b6102de60048036038101906102d9919061305d565b6113e4565b005b6102fa60048036038101906102f59190612c33565b611576565b005b61031660048036038101906103119190612920565b611684565b6040516103299796959493929190612d07565b60405180910390f35b61034c60048036038101906103479190612cda565b611900565b60405161035e969594939291906129ff565b60405180910390f35b61036f611b28565b60405161037c919061303b565b60405180910390f35b61039f600480360381019061039a9190612cda565b611bfc565b005b6103a9611dc9565b6040516103b691906130f3565b60405180910390f35b6103c7611ded565b6040516103d49190612ae3565b60405180910390f35b6103f760048036038101906103f2919061310e565b611df2565b6040516104049190612ae3565b60405180910390f35b610427600480360381019061042291906131ed565b612263565b005b610443600480360381019061043e919061305d565b612496565b6040516104509190613313565b60405180910390f35b610473600480360381019061046e919061332e565b61252e565b6040516104809190612ae3565b60405180910390f35b6104a3600480360381019061049e9190612f5f565b6127cb565b6040516104b09190612ae3565b60405180910390f35b6104c16127e3565b6040516104ce9190612ae3565b60405180910390f35b6104f160048036038101906104ec9190612f5f565b61282a565b6040516104fe9190612ae3565b60405180910390f35b6005602052816000526040600020602052806000526040600020600091509150508060000154908060010154908060020180546105439061345a565b80601f016020809104026020016040519081016040528092919081815260200182805461056f9061345a565b80156105bc5780601f10610591576101008083540402835291602001916105bc565b820191906000526020600020905b81548152906001019060200180831161059f57829003601f168201915b5050505050908060030180546105d19061345a565b80601f01602080910402602001604051908101604052809291908181526020018280546105fd9061345a565b801561064a5780601f1061061f5761010080835404028352916020019161064a565b820191906000526020600020905b81548152906001019060200180831161062d57829003601f168201915b5050505050908060040154908060050154905086565b6060806060600080600260003373ffffffffffffffffffffffffffffffffffffffff1673ffffffffffffffffffffffffffffffffffffffff16815260200190815260200160002090508060000181600101826002018360030160009054906101000a900460ff168380546106d39061345a565b80601f01602080910402602001604051908101604052809291908181526020018280546106ff9061345a565b801561074c5780601f106107215761010080835404028352916020019161074c565b820191906000526020600020905b81548152906001019060200180831161072f57829003601f168201915b5050505050935082805461075f9061345a565b80601f016020809104026020016040519081016040528092919081815260200182805461078b9061345a565b80156107d85780601f106107ad576101008083540402835291602001916107d8565b820191906000526020600020905b8154815290600101906020018083116107bb57829003601f168201915b505050505092508180546107eb9061345a565b80601f01602080910402602001604051908101604052809291908181526020018280546108179061345a565b80156108645780601f1061083957610100808354040283529160200191610864565b820191906000526020600020905b81548152906001019060200180831161084757829003601f168201915b5050505050915094509450945094505090919293565b6000600460003373ffffffffffffffffffffffffffffffffffffffff1673ffffffffffffffffffffffffffffffffffffffff16815260200190815260200160002054905090565b600260003373ffffffffffffffffffffffffffffffffffffffff1673ffffffffffffffffffffffffffffffffffffffff16815260200190815260200160002060030160009054906101000a900460ff1615610951576040517f08c379a0000000000000000000000000000000000000000000000000000000008152600401610948906134d7565b60405180910390fd5b604051806080016040528084815260200183815260200182815260200160011515815250600260003373ffffffffffffffffffffffffffffffffffffffff1673ffffffffffffffffffffffffffffffffffffffff16815260200190815260200160002060008201518160000190816109c991906136a3565b5060208201518160010190816109df91906136a3565b5060408201518160020190816109f591906136a3565b5060608201518160030160006101000a81548160ff0219169083151502179055509050503373ffffffffffffffffffffffffffffffffffffffff167f42558426a946ab6e527d7f548e7bd3e34c2a7ddde555007464cdfbb5f58665f884604051610a5f9190613775565b60405180910390a2505050565b6060806000806060806000600460003373ffffffffffffffffffffffffffffffffffffffff1673ffffffffffffffffffffffffffffffffffffffff168152602001908152602001600020548810610af8576040517f08c379a0000000000000000000000000000000000000000000000000000000008152600401610aef906137e3565b60405180910390fd5b6000600360003373ffffffffffffffffffffffffffffffffffffffff1673ffffffffffffffffffffffffffffffffffffffff16815260200190815260200160002060008a8152602001908152602001600020905080600001816001018260020154836003015484600401856005018660060160009054906101000a900460ff16868054610b849061345a565b80601f0160208091040260200160405190810160405280929190818152602001828054610bb09061345a565b8015610bfd5780601f10610bd257610100808354040283529160200191610bfd565b820191906000526020600020905b815481529060010190602001808311610be057829003601f168201915b50505050509650858054610c109061345a565b80601f0160208091040260200160405190810160405280929190818152602001828054610c3c9061345a565b8015610c895780601f10610c5e57610100808354040283529160200191610c89565b820191906000526020600020905b815481529060010190602001808311610c6c57829003601f168201915b50505050509550828054610c9c9061345a565b80601f0160208091040260200160405190810160405280929190818152602001828054610cc89061345a565b8015610d155780601f10610cea57610100808354040283529160200191610d15565b820191906000526020600020905b815481529060010190602001808311610cf857829003601f168201915b50505050509250818054610d289061345a565b80601f0160208091040260200160405190810160405280929190818152602001828054610d549061345a565b8015610da15780601f10610d7657610100808354040283529160200191610da1565b820191906000526020600020905b815481529060010190602001808311610d8457829003601f168201915b50505050509150975097509750975097509750975050919395979092949650565b60606000600660003373ffffffffffffffffffffffffffffffffffffffff1673ffffffffffffffffffffffffffffffffffffffff16815260200190815260200160002054905060008167ffffffffffffffff811115610e2457610e23612b08565b5b604051908082528060200260200182016040528015610e5d57816020015b610e4a612842565b815260200190600190039081610e425790505b50905060005b8281101561103d57600560003373ffffffffffffffffffffffffffffffffffffffff1673ffffffffffffffffffffffffffffffffffffffff16815260200190815260200160002060008281526020019081526020016000206040518060c00160405290816000820154815260200160018201548152602001600282018054610eea9061345a565b80601f0160208091040260200160405190810160405280929190818152602001828054610f169061345a565b8015610f635780601f10610f3857610100808354040283529160200191610f63565b820191906000526020600020905b815481529060010190602001808311610f4657829003601f168201915b50505050508152602001600382018054610f7c9061345a565b80601f0160208091040260200160405190810160405280929190818152602001828054610fa89061345a565b8015610ff55780601f10610fca57610100808354040283529160200191610ff5565b820191906000526020600020905b815481529060010190602001808311610fd857829003601f168201915b505050505081526020016004820154815260200160058201548152505082828151811061102557611024613803565b5b60200260200101819052508080600101915050610e63565b50809250505090565b60026020528060005260406000206000915090508060000180546110699061345a565b80601f01602080910402602001604051908101604052809291908181526020018280546110959061345a565b80156110e25780601f106110b7576101008083540402835291602001916110e2565b820191906000526020600020905b8154815290600101906020018083116110c557829003601f168201915b5050505050908060010180546110f79061345a565b80601f01602080910402602001604051908101604052809291908181526020018280546111239061345a565b80156111705780601f1061114557610100808354040283529160200191611170565b820191906000526020600020905b81548152906001019060200180831161115357829003601f168201915b5050505050908060020180546111859061345a565b80601f01602080910402602001604051908101604052809291908181526020018280546111b19061345a565b80156111fe5780601f106111d3576101008083540402835291602001916111fe565b820191906000526020600020905b8154815290600101906020018083116111e157829003601f168201915b5050505050908060030160009054906101000a900460ff16905084565b60606000600660003373ffffffffffffffffffffffffffffffffffffffff1673ffffffffffffffffffffffffffffffffffffffff16815260200190815260200160002054905060008167ffffffffffffffff81111561127d5761127c612b08565b5b6040519080825280602002602001820160405280156112ab5781602001602082028036833780820191505090505b50905060005b828110156112e657808282815181106112cd576112cc613803565b5b60200260200101818152505080806001019150506112b1565b50809250505090565b6001818051602081018201805184825260208301602085012081835280955050505050506000915090508060000180546113289061345a565b80601f01602080910402602001604051908101604052809291908181526020018280546113549061345a565b80156113a15780601f10611376576101008083540402835291602001916113a1565b820191906000526020600020905b81548152906001019060200180831161138457829003601f168201915b5050505050908060010160009054906101000a900473ffffffffffffffffffffffffffffffffffffffff16908060010160149054906101000a900460ff16905083565b6001816040516113f4919061386e565b908152602001604051809103902060010160149054906101000a900460ff1615611453576040517f08c379a000000000000000000000000000000000000000000000000000000000815260040161144a906138d1565b60405180910390fd5b60405180606001604052808281526020013373ffffffffffffffffffffffffffffffffffffffff16815260200160011515815250600182604051611497919061386e565b908152602001604051809103902060008201518160000190816114ba91906136a3565b5060208201518160010160006101000a81548173ffffffffffffffffffffffffffffffffffffffff021916908373ffffffffffffffffffffffffffffffffffffffff16021790555060408201518160010160146101000a81548160ff0219169083151502179055509050503373ffffffffffffffffffffffffffffffffffffffff167f48cac28ad4dc618e15f4c2dd5e97751182f166de97b25618318b2112aa951a2f8260405161156b9190613775565b60405180910390a250565b600260003373ffffffffffffffffffffffffffffffffffffffff1673ffffffffffffffffffffffffffffffffffffffff16815260200190815260200160002060030160009054906101000a900460ff16611605576040517f08c379a00000000000000000000000000000000000000000000000000000000081526004016115fc90613963565b60405180910390fd5b6000600260003373ffffffffffffffffffffffffffffffffffffffff1673ffffffffffffffffffffffffffffffffffffffff16815260200190815260200160002090508381600001908161165991906136a3565b508281600101908161166b91906136a3565b508181600201908161167d91906136a3565b5050505050565b6003602052816000526040600020602052806000526040600020600091509150508060000180546116b49061345a565b80601f01602080910402602001604051908101604052809291908181526020018280546116e09061345a565b801561172d5780601f106117025761010080835404028352916020019161172d565b820191906000526020600020905b81548152906001019060200180831161171057829003601f168201915b5050505050908060010180546117429061345a565b80601f016020809104026020016040519081016040528092919081815260200182805461176e9061345a565b80156117bb5780601f10611790576101008083540402835291602001916117bb565b820191906000526020600020905b81548152906001019060200180831161179e57829003601f168201915b5050505050908060020154908060030154908060040180546117dc9061345a565b80601f01602080910402602001604051908101604052809291908181526020018280546118089061345a565b80156118555780601f1061182a57610100808354040283529160200191611855565b820191906000526020600020905b81548152906001019060200180831161183857829003601f168201915b50505050509080600501805461186a9061345a565b80601f01602080910402602001604051908101604052809291908181526020018280546118969061345a565b80156118e35780601f106118b8576101008083540402835291602001916118e3565b820191906000526020600020905b8154815290600101906020018083116118c657829003601f168201915b5050505050908060060160009054906101000a900460ff16905087565b600080606080600080600660003373ffffffffffffffffffffffffffffffffffffffff1673ffffffffffffffffffffffffffffffffffffffff16815260200190815260200160002054871061198a576040517f08c379a0000000000000000000000000000000000000000000000000000000008152600401611981906139cf565b60405180910390fd5b6000600560003373ffffffffffffffffffffffffffffffffffffffff1673ffffffffffffffffffffffffffffffffffffffff1681526020019081526020016000206000898152602001908152602001600020905080600001548160010154826002018360030184600401548560050154838054611a069061345a565b80601f0160208091040260200160405190810160405280929190818152602001828054611a329061345a565b8015611a7f5780601f10611a5457610100808354040283529160200191611a7f565b820191906000526020600020905b815481529060010190602001808311611a6257829003601f168201915b50505050509350828054611a929061345a565b80601f0160208091040260200160405190810160405280929190818152602001828054611abe9061345a565b8015611b0b5780601f10611ae057610100808354040283529160200191611b0b565b820191906000526020600020905b815481529060010190602001808311611aee57829003601f168201915b505050505092509650965096509650965096505091939550919395565b60606000600460003373ffffffffffffffffffffffffffffffffffffffff1673ffffffffffffffffffffffffffffffffffffffff16815260200190815260200160002054905060008167ffffffffffffffff811115611b8a57611b89612b08565b5b604051908082528060200260200182016040528015611bb85781602001602082028036833780820191505090505b50905060005b82811015611bf35780828281518110611bda57611bd9613803565b5b6020026020010181815250508080600101915050611bbe565b50809250505090565b600260003373ffffffffffffffffffffffffffffffffffffffff1673ffffffffffffffffffffffffffffffffffffffff16815260200190815260200160002060030160009054906101000a900460ff16611c8b576040517f08c379a0000000000000000000000000000000000000000000000000000000008152600401611c8290613963565b60405180910390fd5b600460003373ffffffffffffffffffffffffffffffffffffffff1673ffffffffffffffffffffffffffffffffffffffff168152602001908152602001600020548110611d0c576040517f08c379a0000000000000000000000000000000000000000000000000000000008152600401611d03906137e3565b60405180910390fd5b6000600360003373ffffffffffffffffffffffffffffffffffffffff1673ffffffffffffffffffffffffffffffffffffffff168152602001908152602001600020600083815260200190815260200160002060060160006101000a81548160ff0219169083151502179055503373ffffffffffffffffffffffffffffffffffffffff167f470d9700ba4bd374b23be541021a1dfbb0b1514dad28b94d13aa84677664c33682604051611dbe9190612ae3565b60405180910390a250565b60008054906101000a900473ffffffffffffffffffffffffffffffffffffffff1681565b600581565b6000600260003373ffffffffffffffffffffffffffffffffffffffff1673ffffffffffffffffffffffffffffffffffffffff16815260200190815260200160002060030160009054906101000a900460ff16611e83576040517f08c379a0000000000000000000000000000000000000000000000000000000008152600401611e7a90613963565b60405180910390fd5b600460003373ffffffffffffffffffffffffffffffffffffffff1673ffffffffffffffffffffffffffffffffffffffff168152602001908152602001600020548610611f04576040517f08c379a0000000000000000000000000000000000000000000000000000000008152600401611efb906137e3565b60405180910390fd5b6000600360003373ffffffffffffffffffffffffffffffffffffffff1673ffffffffffffffffffffffffffffffffffffffff168152602001908152602001600020600088815260200190815260200160002090508060060160009054906101000a900460ff16611fa9576040517f08c379a0000000000000000000000000000000000000000000000000000000008152600401611fa090613a61565b60405180910390fd5b8581600301541015611ff0576040517f08c379a0000000000000000000000000000000000000000000000000000000008152600401611fe790613acd565b60405180910390fd5b6000600660003373ffffffffffffffffffffffffffffffffffffffff1673ffffffffffffffffffffffffffffffffffffffff1681526020019081526020016000205490506040518060c0016040528089815260200188815260200187815260200186815260200185815260200142815250600560003373ffffffffffffffffffffffffffffffffffffffff1673ffffffffffffffffffffffffffffffffffffffff1681526020019081526020016000206000838152602001908152602001600020600082015181600001556020820151816001015560408201518160020190816120da91906136a3565b5060608201518160030190816120f091906136a3565b506080820151816004015560a08201518160050155905050600660003373ffffffffffffffffffffffffffffffffffffffff1673ffffffffffffffffffffffffffffffffffffffff168152602001908152602001600020600081548092919061215890613b1c565b9190505550868260030160008282546121719190613b64565b9250508190555060058260030154116121d9573373ffffffffffffffffffffffffffffffffffffffff167fc17ceacd58bf810bd4d28e6a87f090b681a0ab2ac3c400f7dc6b70569c873c9f8984600301546040516121d0929190613b98565b60405180910390a25b60008260030154036122035760008260060160006101000a81548160ff0219169083151502179055505b3373ffffffffffffffffffffffffffffffffffffffff167fe84b578d777f088b1595c474955c41916ffd6b34833e9daf04f2ab312eea015d828a8a60405161224d93929190613bc1565b60405180910390a2809250505095945050505050565b600260003373ffffffffffffffffffffffffffffffffffffffff1673ffffffffffffffffffffffffffffffffffffffff16815260200190815260200160002060030160009054906101000a900460ff166122f2576040517f08c379a00000000000000000000000000000000000000000000000000000000081526004016122e990613963565b60405180910390fd5b600460003373ffffffffffffffffffffffffffffffffffffffff1673ffffffffffffffffffffffffffffffffffffffff168152602001908152602001600020548810612373576040517f08c379a000000000000000000000000000000000000000000000000000000000815260040161236a906137e3565b60405180910390fd5b6000600360003373ffffffffffffffffffffffffffffffffffffffff1673ffffffffffffffffffffffffffffffffffffffff16815260200190815260200160002060008a81526020019081526020016000209050878160000190816123d891906136a3565b50868160010190816123ea91906136a3565b508581600201819055508481600301819055508381600401908161240e91906136a3565b508281600501908161242091906136a3565b50818160060160006101000a81548160ff0219169083151502179055503373ffffffffffffffffffffffffffffffffffffffff167f67c4f466860b880ccd4f0ae5cb6a000eaa9a94b55921e26c0c559e56a09a4cba8a6040516124839190612ae3565b60405180910390a2505050505050505050565b6000806001836040516124a9919061386e565b908152602001604051809103902090508060010160149054906101000a900460ff16801561252657503373ffffffffffffffffffffffffffffffffffffffff168160010160009054906101000a900473ffffffffffffffffffffffffffffffffffffffff1673ffffffffffffffffffffffffffffffffffffffff16145b915050919050565b6000600260003373ffffffffffffffffffffffffffffffffffffffff1673ffffffffffffffffffffffffffffffffffffffff16815260200190815260200160002060030160009054906101000a900460ff166125bf576040517f08c379a00000000000000000000000000000000000000000000000000000000081526004016125b690613963565b60405180910390fd5b6000600460003373ffffffffffffffffffffffffffffffffffffffff1673ffffffffffffffffffffffffffffffffffffffff1681526020019081526020016000205490506040518060e0016040528089815260200188815260200187815260200186815260200185815260200184815260200160011515815250600360003373ffffffffffffffffffffffffffffffffffffffff1673ffffffffffffffffffffffffffffffffffffffff1681526020019081526020016000206000838152602001908152602001600020600082015181600001908161269e91906136a3565b5060208201518160010190816126b491906136a3565b50604082015181600201556060820151816003015560808201518160040190816126de91906136a3565b5060a08201518160050190816126f491906136a3565b5060c08201518160060160006101000a81548160ff021916908315150217905550905050600460003373ffffffffffffffffffffffffffffffffffffffff1673ffffffffffffffffffffffffffffffffffffffff168152602001908152602001600020600081548092919061276890613b1c565b91905055503373ffffffffffffffffffffffffffffffffffffffff167fd3410938b3976812ed39fb2f45216c16b893b52567906b93e481988fd861e529828a6040516127b5929190613bf8565b60405180910390a2809150509695505050505050565b60066020528060005260406000206000915090505481565b6000600660003373ffffffffffffffffffffffffffffffffffffffff1673ffffffffffffffffffffffffffffffffffffffff16815260200190815260200160002054905090565b60046020528060005260406000206000915090505481565b6040518060c001604052806000815260200160008152602001606081526020016060815260200160008152602001600081525090565b6000604051905090565b600080fd5b600080fd5b600073ffffffffffffffffffffffffffffffffffffffff82169050919050565b60006128b78261288c565b9050919050565b6128c7816128ac565b81146128d257600080fd5b50565b6000813590506128e4816128be565b92915050565b6000819050919050565b6128fd816128ea565b811461290857600080fd5b50565b60008135905061291a816128f4565b92915050565b6000806040838503121561293757612936612882565b5b6000612945858286016128d5565b92505060206129568582860161290b565b9150509250929050565b612969816128ea565b82525050565b600081519050919050565b600082825260208201905092915050565b60005b838110156129a957808201518184015260208101905061298e565b60008484015250505050565b6000601f19601f8301169050919050565b60006129d18261296f565b6129db818561297a565b93506129eb81856020860161298b565b6129f4816129b5565b840191505092915050565b600060c082019050612a146000830189612960565b612a216020830188612960565b8181036040830152612a3381876129c6565b90508181036060830152612a4781866129c6565b9050612a566080830185612960565b612a6360a0830184612960565b979650505050505050565b60008115159050919050565b612a8381612a6e565b82525050565b60006080820190508181036000830152612aa381876129c6565b90508181036020830152612ab781866129c6565b90508181036040830152612acb81856129c6565b9050612ada6060830184612a7a565b95945050505050565b6000602082019050612af86000830184612960565b92915050565b600080fd5b600080fd5b7f4e487b7100000000000000000000000000000000000000000000000000000000600052604160045260246000fd5b612b40826129b5565b810181811067ffffffffffffffff82111715612b5f57612b5e612b08565b5b80604052505050565b6000612b72612878565b9050612b7e8282612b37565b919050565b600067ffffffffffffffff821115612b9e57612b9d612b08565b5b612ba7826129b5565b9050602081019050919050565b82818337600083830152505050565b6000612bd6612bd184612b83565b612b68565b905082815260208101848484011115612bf257612bf1612b03565b5b612bfd848285612bb4565b509392505050565b600082601f830112612c1a57612c19612afe565b5b8135612c2a848260208601612bc3565b91505092915050565b600080600060608486031215612c4c57612c4b612882565b5b600084013567ffffffffffffffff811115612c6a57612c69612887565b5b612c7686828701612c05565b935050602084013567ffffffffffffffff811115612c9757612c96612887565b5b612ca386828701612c05565b925050604084013567ffffffffffffffff811115612cc457612cc3612887565b5b612cd086828701612c05565b9150509250925092565b600060208284031215612cf057612cef612882565b5b6000612cfe8482850161290b565b91505092915050565b600060e0820190508181036000830152612d21818a6129c6565b90508181036020830152612d3581896129c6565b9050612d446040830188612960565b612d516060830187612960565b8181036080830152612d6381866129c6565b905081810360a0830152612d7781856129c6565b9050612d8660c0830184612a7a565b98975050505050505050565b600081519050919050565b600082825260208201905092915050565b6000819050602082019050919050565b612dc7816128ea565b82525050565b600082825260208201905092915050565b6000612de98261296f565b612df38185612dcd565b9350612e0381856020860161298b565b612e0c816129b5565b840191505092915050565b600060c083016000830151612e2f6000860182612dbe565b506020830151612e426020860182612dbe565b5060408301518482036040860152612e5a8282612dde565b91505060608301518482036060860152612e748282612dde565b9150506080830151612e896080860182612dbe565b5060a0830151612e9c60a0860182612dbe565b508091505092915050565b6000612eb38383612e17565b905092915050565b6000602082019050919050565b6000612ed382612d92565b612edd8185612d9d565b935083602082028501612eef85612dae565b8060005b85811015612f2b5784840389528151612f0c8582612ea7565b9450612f1783612ebb565b925060208a01995050600181019050612ef3565b50829750879550505050505092915050565b60006020820190508181036000830152612f578184612ec8565b905092915050565b600060208284031215612f7557612f74612882565b5b6000612f83848285016128d5565b91505092915050565b600081519050919050565b600082825260208201905092915050565b6000819050602082019050919050565b6000612fc48383612dbe565b60208301905092915050565b6000602082019050919050565b6000612fe882612f8c565b612ff28185612f97565b9350612ffd83612fa8565b8060005b8381101561302e5781516130158882612fb8565b975061302083612fd0565b925050600181019050613001565b5085935050505092915050565b600060208201905081810360008301526130558184612fdd565b905092915050565b60006020828403121561307357613072612882565b5b600082013567ffffffffffffffff81111561309157613090612887565b5b61309d84828501612c05565b91505092915050565b6130af816128ac565b82525050565b600060608201905081810360008301526130cf81866129c6565b90506130de60208301856130a6565b6130eb6040830184612a7a565b949350505050565b600060208201905061310860008301846130a6565b92915050565b600080600080600060a0868803121561312a57613129612882565b5b60006131388882890161290b565b95505060206131498882890161290b565b945050604086013567ffffffffffffffff81111561316a57613169612887565b5b61317688828901612c05565b935050606086013567ffffffffffffffff81111561319757613196612887565b5b6131a388828901612c05565b92505060806131b48882890161290b565b9150509295509295909350565b6131ca81612a6e565b81146131d557600080fd5b50565b6000813590506131e7816131c1565b92915050565b600080600080600080600080610100898b03121561320e5761320d612882565b5b600061321c8b828c0161290b565b985050602089013567ffffffffffffffff81111561323d5761323c612887565b5b6132498b828c01612c05565b975050604089013567ffffffffffffffff81111561326a57613269612887565b5b6132768b828c01612c05565b96505060606132878b828c0161290b565b95505060806132988b828c0161290b565b94505060a089013567ffffffffffffffff8111156132b9576132b8612887565b5b6132c58b828c01612c05565b93505060c089013567ffffffffffffffff8111156132e6576132e5612887565b5b6132f28b828c01612c05565b92505060e06133038b828c016131d8565b9150509295985092959890939650565b60006020820190506133286000830184612a7a565b92915050565b60008060008060008060c0878903121561334b5761334a612882565b5b600087013567ffffffffffffffff81111561336957613368612887565b5b61337589828a01612c05565b965050602087013567ffffffffffffffff81111561339657613395612887565b5b6133a289828a01612c05565b95505060406133b389828a0161290b565b94505060606133c489828a0161290b565b935050608087013567ffffffffffffffff8111156133e5576133e4612887565b5b6133f189828a01612c05565b92505060a087013567ffffffffffffffff81111561341257613411612887565b5b61341e89828a01612c05565b9150509295509295509295565b7f4e487b7100000000000000000000000000000000000000000000000000000000600052602260045260246000fd5b6000600282049050600182168061347257607f821691505b6020821081036134855761348461342b565b5b50919050565b7f4661726d657220616c7265616479207265676973746572656400000000000000600082015250565b60006134c160198361297a565b91506134cc8261348b565b602082019050919050565b600060208201905081810360008301526134f0816134b4565b9050919050565b60008190508160005260206000209050919050565b60006020601f8301049050919050565b600082821b905092915050565b6000600883026135597fffffffffffffffffffffffffffffffffffffffffffffffffffffffffffffffff8261351c565b613563868361351c565b95508019841693508086168417925050509392505050565b6000819050919050565b60006135a061359b613596846128ea565b61357b565b6128ea565b9050919050565b6000819050919050565b6135ba83613585565b6135ce6135c6826135a7565b848454613529565b825550505050565b600090565b6135e36135d6565b6135ee8184846135b1565b505050565b5b81811015613612576136076000826135db565b6001810190506135f4565b5050565b601f82111561365757613628816134f7565b6136318461350c565b81016020851015613640578190505b61365461364c8561350c565b8301826135f3565b50505b505050565b600082821c905092915050565b600061367a6000198460080261365c565b1980831691505092915050565b60006136938383613669565b9150826002028217905092915050565b6136ac8261296f565b67ffffffffffffffff8111156136c5576136c4612b08565b5b6136cf825461345a565b6136da828285613616565b600060209050601f83116001811461370d57600084156136fb578287015190505b6137058582613687565b86555061376d565b601f19841661371b866134f7565b60005b828110156137435784890151825560018201915060208501945060208101905061371e565b86831015613760578489015161375c601f891682613669565b8355505b6001600288020188555050505b505050505050565b6000602082019050818103600083015261378f81846129c6565b905092915050565b7f50726f6475636520646f6573206e6f7420657869737400000000000000000000600082015250565b60006137cd60168361297a565b91506137d882613797565b602082019050919050565b600060208201905081810360008301526137fc816137c0565b9050919050565b7f4e487b7100000000000000000000000000000000000000000000000000000000600052603260045260246000fd5b600081905092915050565b60006138488261296f565b6138528185613832565b935061386281856020860161298b565b80840191505092915050565b600061387a828461383d565b915081905092915050565b7f5573657220616c72656164792072656769737465726564000000000000000000600082015250565b60006138bb60178361297a565b91506138c682613885565b602082019050919050565b600060208201905081810360008301526138ea816138ae565b9050919050565b7f4f6e6c792072656769737465726564206661726d6572732063616e207065726660008201527f6f726d207468697320616374696f6e0000000000000000000000000000000000602082015250565b600061394d602f8361297a565b9150613958826138f1565b604082019050919050565b6000602082019050818103600083015261397c81613940565b9050919050565b7f53616c6520646f6573206e6f7420657869737400000000000000000000000000600082015250565b60006139b960138361297a565b91506139c482613983565b602082019050919050565b600060208201905081810360008301526139e8816139ac565b9050919050565b7f50726f64756365206973206e6f7420617661696c61626c6520666f722073616c60008201527f6500000000000000000000000000000000000000000000000000000000000000602082015250565b6000613a4b60218361297a565b9150613a56826139ef565b604082019050919050565b60006020820190508181036000830152613a7a81613a3e565b9050919050565b7f496e73756666696369656e74207175616e7469747920617661696c61626c6500600082015250565b6000613ab7601f8361297a565b9150613ac282613a81565b602082019050919050565b60006020820190508181036000830152613ae681613aaa565b9050919050565b7f4e487b7100000000000000000000000000000000000000000000000000000000600052601160045260246000fd5b6000613b27826128ea565b91507fffffffffffffffffffffffffffffffffffffffffffffffffffffffffffffffff8203613b5957613b58613aed565b5b600182019050919050565b6000613b6f826128ea565b9150613b7a836128ea565b9250828203905081811115613b9257613b91613aed565b5b92915050565b6000604082019050613bad6000830185612960565b613bba6020830184612960565b9392505050565b6000606082019050613bd66000830186612960565b613be36020830185612960565b613bf06040830184612960565b949350505050565b6000604082019050613c0d6000830185612960565b8181036020830152613c1f81846129c6565b9050939250505056fea264697066735822122044bd4097826db96bad16442fc3ab7344b25e091c2a813fd51496b3312c9a6e1f64736f6c634300081c0033",
  "linkReferences": {},
  "deployedLinkReferences": {}
}